{
  "contractName": "Certification",
  "abi": [
    {
      "anonymous": false,
      "inputs": [
        {
          "indexed": false,
          "internalType": "string",
          "name": "certificate_id",
          "type": "string"
        }
      ],
      "name": "CertificateGenerated",
      "type": "event"
    },
    {
      "inputs": [
        {
          "internalType": "string",
          "name": "",
          "type": "string"
        }
      ],
      "name": "certificates",
      "outputs": [
        {
          "internalType": "string",
          "name": "uid",
          "type": "string"
        },
        {
          "internalType": "string",
          "name": "candidate_name",
          "type": "string"
        },
        {
          "internalType": "string",
          "name": "course_name",
          "type": "string"
        },
        {
          "internalType": "string",
          "name": "org_name",
          "type": "string"
        },
        {
          "internalType": "string",
          "name": "ipfs_hash",
          "type": "string"
        }
      ],
      "stateMutability": "view",
      "type": "function"
    },
    {
      "inputs": [
        {
          "internalType": "string",
          "name": "_certificate_id",
          "type": "string"
        },
        {
          "internalType": "string",
          "name": "_uid",
          "type": "string"
        },
        {
          "internalType": "string",
          "name": "_candidate_name",
          "type": "string"
        },
        {
          "internalType": "string",
          "name": "_course_name",
          "type": "string"
        },
        {
          "internalType": "string",
          "name": "_org_name",
          "type": "string"
        },
        {
          "internalType": "string",
          "name": "_ipfs_hash",
          "type": "string"
        }
      ],
      "name": "generateCertificate",
      "outputs": [],
      "stateMutability": "nonpayable",
      "type": "function"
    },
    {
      "inputs": [
        {
          "internalType": "string",
          "name": "_certificate_id",
          "type": "string"
        }
      ],
      "name": "getCertificate",
      "outputs": [
        {
          "internalType": "string",
          "name": "uid",
          "type": "string"
        },
        {
          "internalType": "string",
          "name": "candidate_name",
          "type": "string"
        },
        {
          "internalType": "string",
          "name": "course_name",
          "type": "string"
        },
        {
          "internalType": "string",
          "name": "org_name",
          "type": "string"
        },
        {
          "internalType": "string",
          "name": "ipfs_hash",
          "type": "string"
        }
      ],
      "stateMutability": "view",
      "type": "function"
    },
    {
      "inputs": [
        {
          "internalType": "string",
          "name": "_certificate_id",
          "type": "string"
        }
      ],
      "name": "isVerified",
      "outputs": [
        {
          "internalType": "bool",
          "name": "",
          "type": "bool"
        }
      ],
      "stateMutability": "view",
      "type": "function"
    }
  ],
  "bytecode": "0x608060405234801561001057600080fd5b5061115f806100206000396000f3fe608060405234801561001057600080fd5b506004361061004c5760003560e01c8063234c76d514610051578063627956ae146100815780638f2b91ea1461009d578063ed0f2e75146100d1575b600080fd5b61006b60048036038101906100669190610bec565b610105565b6040516100789190610c50565b60405180910390f35b61009b60048036038101906100969190610c6b565b61013f565b005b6100b760048036038101906100b29190610bec565b610351565b6040516100c8959493929190610e28565b60405180910390f35b6100eb60048036038101906100e69190610bec565b610645565b6040516100fc959493929190610e28565b60405180910390f35b6000806000836040516101189190610eda565b9081526020016040518091039020600401805461013490610f20565b905014159050919050565b60008651118015610151575060008551115b801561015e575060008451115b801561016b575060008351115b8015610178575060008251115b8015610185575060008151115b6101c4576040517f08c379a00000000000000000000000000000000000000000000000000000000081526004016101bb90610fc3565b60405180910390fd5b600080876040516101d59190610eda565b908152602001604051809103902060040180546101f190610f20565b905014610233576040517f08c379a000000000000000000000000000000000000000000000000000000000815260040161022a90611055565b60405180910390fd5b60006040518060a001604052808781526020018681526020018581526020018481526020018381525090508060008860405161026f9190610eda565b908152602001604051809103902060008201518160000190805190602001906102999291906109ef565b5060208201518160010190805190602001906102b69291906109ef565b5060408201518160020190805190602001906102d39291906109ef565b5060608201518160030190805190602001906102f09291906109ef565b50608082015181600401908051906020019061030d9291906109ef565b509050507f45c2c0e31a5df12dde47f46b104ed706b348f37c21123e21f674930d20ed16c5876040516103409190611075565b60405180910390a150505050505050565b60008180516020810182018051848252602083016020850120818352809550505050505060009150905080600001805461038a90610f20565b80601f01602080910402602001604051908101604052809291908181526020018280546103b690610f20565b80156104035780601f106103d857610100808354040283529160200191610403565b820191906000526020600020905b8154815290600101906020018083116103e657829003601f168201915b50505050509080600101805461041890610f20565b80601f016020809104026020016040519081016040528092919081815260200182805461044490610f20565b80156104915780601f1061046657610100808354040283529160200191610491565b820191906000526020600020905b81548152906001019060200180831161047457829003601f168201915b5050505050908060020180546104a690610f20565b80601f01602080910402602001604051908101604052809291908181526020018280546104d290610f20565b801561051f5780601f106104f45761010080835404028352916020019161051f565b820191906000526020600020905b81548152906001019060200180831161050257829003601f168201915b50505050509080600301805461053490610f20565b80601f016020809104026020016040519081016040528092919081815260200182805461056090610f20565b80156105ad5780601f10610582576101008083540402835291602001916105ad565b820191906000526020600020905b81548152906001019060200180831161059057829003601f168201915b5050505050908060040180546105c290610f20565b80601f01602080910402602001604051908101604052809291908181526020018280546105ee90610f20565b801561063b5780601f106106105761010080835404028352916020019161063b565b820191906000526020600020905b81548152906001019060200180831161061e57829003601f168201915b5050505050905085565b60608060608060606000808760405161065e9190610eda565b90815260200160405180910390206040518060a001604052908160008201805461068790610f20565b80601f01602080910402602001604051908101604052809291908181526020018280546106b390610f20565b80156107005780601f106106d557610100808354040283529160200191610700565b820191906000526020600020905b8154815290600101906020018083116106e357829003601f168201915b5050505050815260200160018201805461071990610f20565b80601f016020809104026020016040519081016040528092919081815260200182805461074590610f20565b80156107925780601f1061076757610100808354040283529160200191610792565b820191906000526020600020905b81548152906001019060200180831161077557829003601f168201915b505050505081526020016002820180546107ab90610f20565b80601f01602080910402602001604051908101604052809291908181526020018280546107d790610f20565b80156108245780601f106107f957610100808354040283529160200191610824565b820191906000526020600020905b81548152906001019060200180831161080757829003601f168201915b5050505050815260200160038201805461083d90610f20565b80601f016020809104026020016040519081016040528092919081815260200182805461086990610f20565b80156108b65780601f1061088b576101008083540402835291602001916108b6565b820191906000526020600020905b81548152906001019060200180831161089957829003601f168201915b505050505081526020016004820180546108cf90610f20565b80601f01602080910402602001604051908101604052809291908181526020018280546108fb90610f20565b80156109485780601f1061091d57610100808354040283529160200191610948565b820191906000526020600020905b81548152906001019060200180831161092b57829003601f168201915b5050505050815250509050600080886040516109649190610eda565b9081526020016040518091039020600401805461098090610f20565b9050036109c2576040517f08c379a00000000000000000000000000000000000000000000000000000000081526004016109b990611109565b60405180910390fd5b80600001518160200151826040015183606001518460800151955095509550955095505091939590929450565b8280546109fb90610f20565b90600052602060002090601f016020900481019282610a1d5760008555610a64565b82601f10610a3657805160ff1916838001178555610a64565b82800160010185558215610a64579182015b82811115610a63578251825591602001919060010190610a48565b5b509050610a719190610a75565b5090565b5b80821115610a8e576000816000905550600101610a76565b5090565b6000604051905090565b600080fd5b600080fd5b600080fd5b600080fd5b6000601f19601f8301169050919050565b7f4e487b7100000000000000000000000000000000000000000000000000000000600052604160045260246000fd5b610af982610ab0565b810181811067ffffffffffffffff82111715610b1857610b17610ac1565b5b80604052505050565b6000610b2b610a92565b9050610b378282610af0565b919050565b600067ffffffffffffffff821115610b5757610b56610ac1565b5b610b6082610ab0565b9050602081019050919050565b82818337600083830152505050565b6000610b8f610b8a84610b3c565b610b21565b905082815260208101848484011115610bab57610baa610aab565b5b610bb6848285610b6d565b509392505050565b600082601f830112610bd357610bd2610aa6565b5b8135610be3848260208601610b7c565b91505092915050565b600060208284031215610c0257610c01610a9c565b5b600082013567ffffffffffffffff811115610c2057610c1f610aa1565b5b610c2c84828501610bbe565b91505092915050565b60008115159050919050565b610c4a81610c35565b82525050565b6000602082019050610c656000830184610c41565b92915050565b60008060008060008060c08789031215610c8857610c87610a9c565b5b600087013567ffffffffffffffff811115610ca657610ca5610aa1565b5b610cb289828a01610bbe565b965050602087013567ffffffffffffffff811115610cd357610cd2610aa1565b5b610cdf89828a01610bbe565b955050604087013567ffffffffffffffff811115610d0057610cff610aa1565b5b610d0c89828a01610bbe565b945050606087013567ffffffffffffffff811115610d2d57610d2c610aa1565b5b610d3989828a01610bbe565b935050608087013567ffffffffffffffff811115610d5a57610d59610aa1565b5b610d6689828a01610bbe565b92505060a087013567ffffffffffffffff811115610d8757610d86610aa1565b5b610d9389828a01610bbe565b9150509295509295509295565b600081519050919050565b600082825260208201905092915050565b60005b83811015610dda578082015181840152602081019050610dbf565b83811115610de9576000848401525b50505050565b6000610dfa82610da0565b610e048185610dab565b9350610e14818560208601610dbc565b610e1d81610ab0565b840191505092915050565b600060a0820190508181036000830152610e428188610def565b90508181036020830152610e568187610def565b90508181036040830152610e6a8186610def565b90508181036060830152610e7e8185610def565b90508181036080830152610e928184610def565b90509695505050505050565b600081905092915050565b6000610eb482610da0565b610ebe8185610e9e565b9350610ece818560208601610dbc565b80840191505092915050565b6000610ee68284610ea9565b915081905092915050565b7f4e487b7100000000000000000000000000000000000000000000000000000000600052602260045260246000fd5b60006002820490506001821680610f3857607f821691505b602082108103610f4b57610f4a610ef1565b5b50919050565b7f416c6c20696e70757420706172616d6574657273206d757374206265206e6f6e60008201527f2d656d7074790000000000000000000000000000000000000000000000000000602082015250565b6000610fad602683610dab565b9150610fb882610f51565b604082019050919050565b60006020820190508181036000830152610fdc81610fa0565b9050919050565b7f43657274696669636174652077697468207468697320494420616c726561647960008201527f2065786973747300000000000000000000000000000000000000000000000000602082015250565b600061103f602783610dab565b915061104a82610fe3565b604082019050919050565b6000602082019050818103600083015261106e81611032565b9050919050565b6000602082019050818103600083015261108f8184610def565b905092915050565b7f43657274696669636174652077697468207468697320494420646f6573206e6f60008201527f7420657869737400000000000000000000000000000000000000000000000000602082015250565b60006110f3602783610dab565b91506110fe82611097565b604082019050919050565b60006020820190508181036000830152611122816110e6565b905091905056fea26469706673582212207975497db28f7d935f6c6ab9bd7d4f2ec144f989188e2fab0bf936b3e0bc1cf464736f6c634300080d0033",
  "immutableReferences": {},
  "source": "// SPDX-License-Identifier: MIT\r\npragma solidity ^0.8.13;\r\n\r\ncontract Certification {\r\n    struct Certificate {\r\n        string uid;\r\n        string candidate_name;\r\n        string course_name;\r\n        string org_name;\r\n        string ipfs_hash;\r\n    }\r\n\r\n    mapping(string => Certificate) public certificates;\r\n    event CertificateGenerated(string certificate_id);\r\n\r\n    function generateCertificate(\r\n        string memory _certificate_id,\r\n        string memory _uid,\r\n        string memory _candidate_name,\r\n        string memory _course_name,\r\n        string memory _org_name,\r\n        string memory _ipfs_hash\r\n    ) public {\r\n        require(\r\n            bytes(_certificate_id).length > 0 &&\r\n            bytes(_uid).length > 0 &&\r\n            bytes(_candidate_name).length > 0 &&\r\n            bytes(_course_name).length > 0 &&\r\n            bytes(_org_name).length > 0 &&\r\n            bytes(_ipfs_hash).length > 0,\r\n            \"All input parameters must be non-empty\"\r\n        );\r\n        \r\n        require(\r\n            bytes(certificates[_certificate_id].ipfs_hash).length == 0,\r\n            \"Certificate with this ID already exists\"\r\n        );\r\n\r\n        Certificate memory cert = Certificate({\r\n            uid: _uid,\r\n            candidate_name: _candidate_name,\r\n            course_name: _course_name,\r\n            org_name: _org_name,\r\n            ipfs_hash: _ipfs_hash\r\n        });\r\n\r\n        certificates[_certificate_id] = cert;\r\n\r\n        emit CertificateGenerated(_certificate_id);\r\n    }\r\n\r\n    function getCertificate(\r\n        string memory _certificate_id\r\n    )\r\n        public\r\n        view\r\n        returns (\r\n            string memory uid,\r\n            string memory candidate_name,\r\n            string memory course_name,\r\n            string memory org_name,\r\n            string memory ipfs_hash\r\n        )\r\n    {\r\n        Certificate memory cert = certificates[_certificate_id];\r\n\r\n        require(\r\n            bytes(certificates[_certificate_id].ipfs_hash).length != 0,\r\n            \"Certificate with this ID does not exist\"\r\n        );\r\n\r\n        return (\r\n            cert.uid,\r\n            cert.candidate_name,\r\n            cert.course_name,\r\n            cert.org_name,\r\n            cert.ipfs_hash\r\n        );\r\n    }\r\n\r\n    function isVerified(\r\n        string memory _certificate_id\r\n    ) public view returns (bool) {\r\n        return bytes(certificates[_certificate_id].ipfs_hash).length != 0;\r\n    }\r\n}\r\n",
  "sourcePath": "C:\\Users\\shweta\\desktop\\project\\contracts\\Certification.sol",
  "compiler": {
    "name": "solc",
    "version": "0.8.13+commit.abaa5c0e.Emscripten.clang"
  },
  "schemaVersion": "3.4.16",
  "updatedAt": "2024-04-30T07:09:32.475Z",
  "devdoc": {
    "kind": "dev",
    "methods": {},
    "version": 1
  },
  "userdoc": {
    "kind": "user",
    "methods": {},
    "version": 1
  }
}